:100000000C9463000C948B000C948B000C948B006C
:100010000C948B000C948B000C948B000C948B0034
:100020000C948B000C948B000C948B000C948B0024
:100030000C948B000C948B000C948B000C948B0014
:100040000C94EB060C948B000C94B9060C9493065C
:100050000C948B000C948B000C948B000C948B00F4
:100060000C948B000C948B000000000024002700EF
:100070002A000000000023002600290000000008DC
:10008000000201000003040700000000000000005F
:10009000010204081020408001020408102001021F
:1000A0000408102000000000250028002B00040494
:1000B0000404040404040202020202020303030310
:1000C00003033507DC0B11241FBECFEFD8E0DEBFE2
:1000D000CDBF12E0A0E0B1E0EAEEFFE102C0059082
:1000E0000D92A430B107D9F723E0A4E0B2E001C03B
:1000F0001D92A736B207E1F710E0C2E6D0E004C0D7
:100100002197FE010E94BD0EC136D107C9F70E949A
:100110002F080C94E80F0C9400008F929F92AF92DE
:10012000BF92CF92DF92EF92FF92CF932091CB02BA
:100130003091CC0282179307E8F54B01AA24BB2427
:10014000C82DC52ED62EE72EFF24BC2DA42F20911E
:10015000D002222361F0829E40011124C92D2C9DE2
:1001600060011124BD2D249FF0011124AF2FE091D7
:10017000D602E090D102F090D2023091D302E31384
:1001800023C09C01220F331F820F931F8E0D9F1DD2
:10019000E091D302E80FF92FF11DC083E091D40262
:1001A000E80FF92FF11DB0832091D502820F911D28
:1001B000FC01A083CF91FF90EF90DF90CF90BF9094
:1001C000AF909F908F900895880F991F880F991F67
:1001D0008E0D9F1D472F552766277727222349F02D
:1001E00030E0249F7001259FF00C349FF00C112407
:1001F0004F2DE80FF92FF11D4083CACF4F925F9228
:100200006F927F928F929F92AF92BF92CF92DF9226
:10021000EF92FF920F931F93409157035091580311
:100220004F5F5F4F60E0C12CD12C760188248A9407
:10023000982CA82CB12C80E090E0DC01262F30E037
:10024000421753078CF1220F331F220F331FF9017E
:10025000E252FD4F438454846584768448145904E3
:100260006A047B0424F483849484A584B684F9010D
:10027000E252FD4F4384548465847684C414D504CB
:10028000E604F70424F4C384D484E584F68422527B
:100290003D4FF9010385148525853685800F911F13
:1002A000A21FB31F6F5FCACF88199909AA09BB099A
:1002B000BC01CD016C197D098E099F092091450370
:1002C00004C095958795779567952A95D2F71F91E4
:1002D0000F91FF90EF90DF90CF90BF90AF909F90E5
:1002E0008F907F906F905F904F900895AF92BF92E4
:1002F000CF92DF92EF92FF920F931F93CF93DF93F2
:100300006C017B018B01040F151FEB015E01AE1820
:10031000BF08C017D10759F06991D601ED91FC9142
:100320000190F081E02DC6010995892B79F7C5016F
:10033000DF91CF911F910F91FF90EF90DF90CF90C1
:10034000BF90AF900895FC01538D448D252F30E070
:10035000842F90E0821B930B541710F0CF960895D2
:1003600001970895FC01918D828D981761F0A28DFF
:10037000AE0FBF2FB11D5D968C91928D9F5F9F73C5
:10038000928F90E008958FEF9FEF0895FC01918D7B
:10039000828D981731F0828DE80FF11D858D90E0E8
:1003A00008958FEF9FEF0895FC01918D228D892F85
:1003B00090E0805C9F4F821B91098F73992708956D
:1003C00084E292E00E94D40121E0892B09F420E02C
:1003D000822F089580E090E0892B29F00E94E001AF
:1003E00081110C9400000895FC01A48DA80FB92F71
:1003F000B11DA35ABF4F2C91848D90E001968F734D
:100400009927848FA689B7892C93A089B1898C916B
:10041000837080648C93938D848D981306C00288BA
:10042000F389E02D80818F7D80830895EF92FF9284
:100430000F931F93CF93DF93EC0181E0888F9B8D07
:100440008C8D98131AC0E889F989808185FF15C0C1
:100450009FB7F894EE89FF896083E889F9898081E4
:100460008370806480839FBF81E090E0DF91CF91B3
:100470001F910F91FF90EF900895F62E0B8D10E0D5
:100480000F5F1F4F0F731127E02E8C8D8E110CC044
:100490000FB607FCFACFE889F989808185FFF5CF8F
:1004A000CE010E94F401F1CFEB8DEC0FFD2FF11D79
:1004B000E35AFF4FF0829FB7F8940B8FEA89FB89CC
:1004C00080818062CFCFCF93DF93EC01888D88232A
:1004D000B9F0AA89BB89E889F9898C9185FD03C0A7
:1004E000808186FD0DC00FB607FCF7CF8C9185FF8C
:1004F000F2CF808185FFEDCFCE010E94F401E9CFDC
:10050000DF91CF910895833081F028F4813099F004
:100510008230A9F008958730A9F08830C9F084307E
:10052000B1F4809180008F7D03C0809180008F772F
:1005300080938000089584B58F7784BD089584B535
:100540008F7DFBCF8091B0008F778093B0000895AE
:100550008091B0008F7DF9CFCF93DF93282F30E0CB
:10056000F901E458FF4F8491F901E057FF4FD4910E
:10057000F901E255FF4FC491CC23A1F081110E94F3
:100580008302EC2FF0E0EE0FFF1FEE58FF4FA59116
:10059000B491EC91ED2381E090E009F480E0DF91EB
:1005A000CF91089580E090E0FACF1F93CF93DF932F
:1005B000282F30E0F901E458FF4F8491F901E0570A
:1005C000FF4FD491F901E255FF4FC491CC23A9F01C
:1005D000162F81110E948302EC2FF0E0EE0FFF1F17
:1005E000EC55FF4FA591B4918FB7F894EC91111190
:1005F00008C0D095DE23DC938FBFDF91CF911F9190
:100600000895DE2BF8CFCF93DF9390E0FC01E05705
:10061000FF4F249182559F4FFC0184918823D1F094
:1006200090E0880F991FFC01E859FF4FA591B49104
:10063000FC01EC55FF4FC591D49161110EC09FB7DD
:10064000F8948C91E22FE0958E238C932881E223FD
:10065000E8839FBFDF91CF9108958FB7F894EC9115
:10066000E22BEC938FBFF6CF3FB7F894809109024D
:1006700090910A02A0910B02B0910C0226B5A89BA2
:1006800005C02F3F19F00196A11DB11D3FBFBA2F24
:10069000A92F982F8827BC01CD01620F711D811DE4
:1006A000911D42E0660F771F881F991F4A95D1F769
:1006B00008950F931F93CF93DF93CDB7DEB729979C
:1006C0000FB6F894DEBF0FBECDBF8091D1029091DE
:1006D000D202892B09F467C00E9434030091D7022B
:1006E0001091D8022091D9023091DA02601B710B6F
:1006F000820B930B6C3271408105910568F3F8947D
:100700008091CD029091CE029A838983E091D102AB
:10071000F091D202DF011196808189879091C90200
:10072000E091DB02F091DC028091DD02992309F473
:1007300045C09081982B98879081809589238F83DD
:100740008F818C8388E08B8358856F8149853B81BD
:100750002C8189819A81508347FD252F3A952083EA
:10076000262F39F0441F00C000006083000000C045
:10077000F2CF38E04D9160830000019761F7F0936C
:10078000DC02E093DB0249873B832C839A838983D5
:1007900078940E9434036093D7027093D8028093B8
:1007A000D9029093DA0229960FB6F894DEBF0FBEF5
:1007B000CDBFDF91CF911F910F9108959081982B1C
:1007C00098879081809589238F838F818E8388E09D
:1007D0008D8358856F8149853D812E8189819A81DC
:1007E000508347FD252F00C000C0208300C000C0FB
:1007F00000C000C000C060830000262F3A9541F081
:10080000441F000000C000C000C000C000C0E8CF0E
:1008100038E04D9100C0608300C0019709F7F09364
:10082000DC02E093DB0249873D832E83AFCF8F92BA
:100830009F92AF92BF92CF92DF92EF92FF926B01A5
:100840007C010E9434034B015C01C114D104E1041A
:10085000F104B9F00E943403681979098A099B09E7
:10086000683E73408105910580F321E0C21AD108EA
:10087000E108F10888EE880E83E0981EA11CB11CE7
:10088000E4CFFF90EF90DF90CF90BF90AF909F901C
:100890008F9008952FB7F894609105027091060229
:1008A00080910702909108022FBF0895CF92DF92A6
:1008B000EF92FF92CF938091DF020E94AC028111F0
:1008C000B7C00E943403C0903B03D0903C03E0903B
:1008D0003D03F0903E036C197D098E099F096093DA
:1008E0003F037093400380934103909342030E941F
:1008F000340360933B0370933C0380933D039093D8
:100900003E0310925103C0E0C12CD12C760180919E
:10091000E00290E04796C817190609F0BCF461E0C0
:100920008091DE020E94D50260E08091DE020E948A
:10093000D502C83148F48091DF020E94AC02CC0C91
:10094000DD1CEE1CFF1CC82ACF5FE1CFB701A6015A
:10095000605841155105610581E0780718F081E084
:1009600080935D038091390390913A03209157035E
:10097000309158032F5F3F4F82179307E1F5109294
:100980003A0310923903C114D10480E8E806F10457
:10099000F1F0809151038F5F80935103E09139030F
:1009A000F0913A03EE0FFF1FEE0FFF1FE252FD4FD3
:1009B000438754876587768780914703882339F07A
:1009C000809144038231E8F48F5F809344030E9456
:1009D0004A0460935E0370935F0380936003909377
:1009E00061031092620380915103CF91FF90EF90C9
:1009F000DF90CF900895019690933A038093390346
:100A0000C2CF0E94FE00609335037093360380933B
:100A1000370390933803109244031092470381E008
:100A200080935203809151038F5F80935103CFCF06
:100A30000E944A04C0905E03D0905F03E090600380
:100A4000F09061036C197D098E099F096536710567
:100A50008105910518F081E08093620310925103A3
:100A6000C2CF8F929F92AF92BF92CF92DF92EF92BE
:100A7000FF92CF93DF934B015C018092C50290926D
:100A8000C602A092C702B092C802D0E0C0E0C42E55
:100A9000D12CF12CE12C8091CB029091CC02C81783
:100AA000D90768F4B501A401CE010E948D000E940F
:100AB0005903C701B6010E9417042196ECCFDF91BC
:100AC000CF91FF90EF90DF90CF90BF90AF909F902D
:100AD0008F900895FC0101900020E9F73197AF0154
:100AE000481B590BBC0184E292E00C9476018F9272
:100AF0009F92AF92BF920F931F93CF93DF93CDB787
:100B0000DEB7A1970FB6F894DEBF0FBECDBF19A216
:100B1000423008F44AE08E010F5D1F4F842E912C65
:100B2000B12CA12CA50194010E949B0EE62FB901C6
:100B3000CA01EA30F4F4E05DD801EE938D01232B75
:100B4000242B252B79F790E080E0109719F0CD0148
:100B50000E946A05A1960FB6F894DEBF0FBECDBF06
:100B6000DF91CF911F910F91BF90AF909F908F9089
:100B70000895E95CE1CFCF93DF930E946A05EC0111
:100B800088E191E00E946A058C0F9D1FDF91CF9153
:100B900008954F925F926F927F928F929F92AF9241
:100BA000BF92CF92DF92EF92FF926B017C01AC017A
:100BB0009B010E94820E8823C1F08BE191E00E948C
:100BC0006A057C0188E191E00E946A058E0D9F1DF7
:100BD000FF90EF90DF90CF90BF90AF909F908F905D
:100BE0007F906F905F904F90089546015701E89471
:100BF000B7F82FEF3FEF4FE75FE7C501B4010E9461
:100C0000820E81110DC02FEF3FEF4FE75FE7C50167
:100C1000B4010E94590C18161CF48FE191E0CFCF5B
:100C20002FEF3FEF4FE75FE4C701B6010E94100EC0
:100C300018161CF483E291E0C2CF2FEF3FEF4FE78D
:100C40005FECC701B6010E94590C87FDF3CF20E08D
:100C500030E0A901C701B6010E94590CB12CA12CAA
:100C600087FF0AC06DE284E292E00E9416025C01F6
:100C7000F7FAF094F7F8F0942AE037ED43EA5BE3F3
:100C8000C701B6010E94ED0B2B013C010E94D70C5D
:100C90006B017C010E94060D9B01AC01C301B201F6
:100CA0000E94EC0B2B013C014AE0C701B6010E94F7
:100CB00077057C01EA0CFB1C6EE284E292E00E9464
:100CC0001602E80EF91E20E030E040E251E4C301D4
:100CD000B2010E94150E2B013C010E94D70C4B0162
:100CE000B12CA12C4AE0C501B4010E947705E80EA1
:100CF000F91EC501B4010E94060D9B01AC01C301A0
:100D0000B2010E94EC0B20E030E040E251E40E948E
:100D1000150E0E94D70C90E080E04AE00E94770513
:100D2000E80EF91E4FCF1F920F920FB60F921124AB
:100D30002F933F934F935F936F937F938F939F93E3
:100D4000AF93BF93EF93FF9384E292E00E94F4018C
:100D5000FF91EF91BF91AF919F918F917F916F9193
:100D60005F914F913F912F910F900FBE0F901F9069
:100D700018951F920F920FB60F9211242F938F93F5
:100D80009F93EF93FF93E0913402F09135028081BD
:100D9000E0913A02F0913B0282FD1BC0908180916C
:100DA0003D028F5F8F7320913E02821741F0E091E8
:100DB0003D02F0E0EC5DFD4F958F80933D02FF9189
:100DC000EF919F918F912F910F900FBE0F901F90D9
:100DD00018958081F4CF1F920F920FB60F921124B5
:100DE0002F933F938F939F93AF93BF93809105026F
:100DF00090910602A0910702B0910802309104027E
:100E000023E0230F2D3758F50196A11DB11D209326
:100E100004028093050290930602A0930702B09308
:100E200008028091090290910A02A0910B02B091F0
:100E30000C020196A11DB11D8093090290930A0234
:100E4000A0930B02B0930C02BF91AF919F918F9131
:100E50003F912F910F900FBE0F901F90189526E88D
:100E6000230F0296A11DB11DD2CF1092270210921E
:100E7000260288EE93E0A0E0B0E0809328029093F1
:100E80002902A0932A02B0932B028AE091E090936A
:100E900025028093240285EC90E0909331028093A8
:100EA000300284EC90E0909333028093320280EC25
:100EB00090E0909335028093340281EC90E090931F
:100EC00037028093360282EC90E09093390280934F
:100ED000380286EC90E090933B0280933A021092A5
:100EE0003D0210923E0210923F021092400280E0BA
:100EF00090E0A0E8BFE38093E1029093E202A09328
:100F0000E302B093E4028093E5029093E602A0939B
:100F1000E702B093E80210923A031092390381E09D
:100F20008093430394E090934503909346032CE809
:100F30003AE030935403209353031092560320E178
:100F400030E03093580320935703109259031092C6
:100F50005A0310925B0310925C0310925D0310928F
:100F60005E0310925F03109260031092610310926F
:100F700062039093DF0295E09093DE021092CA0222
:100F80001092D0021092D7021092D8021092D90279
:100F90001092DA028093D6028093D3021092D40288
:100FA00092E09093D5028093C9028DE290E09093F5
:100FB000CE028093CD020E94C30E9093D202809302
:100FC000D102009709F442C02DE2FC0111922A954A
:100FD000E9F78FE090E09093CC028093CB028DE014
:100FE0008093CF028091CA02882341F061E08DE0B6
:100FF0000E94030360E08DE00E94D502EBEBF0E07D
:10100000E491F0E0EE0FFF1FEC55FF4F85919491B6
:101010009093DC028093DB02EDE9F0E0E491E09351
:10102000DD0280E090E0A0E0BFEF8093C5029093E6
:10103000C602A093C702B093C8028093C1029093E6
:10104000C202A093C302B093C40208951092CE02CC
:101050001092CD021092CC021092CB02C0CFCF934F
:10106000DF9300D000D0CDB7DEB7789484B582602E
:1010700084BD84B5816084BD85B5826085BD85B53C
:10108000816085BD80916E00816080936E001092BA
:101090008100809181008260809381008091810035
:1010A00081608093810080918000816080938000C6
:1010B0008091B10084608093B1008091B000816024
:1010C0008093B00080917A00846080937A00809150
:1010D0007A00826080937A0080917A0081608093A8
:1010E0007A0080917A00806880937A001092C10023
:1010F000E0913402F091350282E08083E091340285
:10110000F09135021082E0913002F09131021082AC
:10111000E0913202F091330280E1808310923C0230
:10112000E0913802F091390286E08083E091360246
:10113000F0913702808180618083E0913602F091E6
:101140003702808188608083E0913602F091370217
:10115000808180688083E0913602F091370280813F
:101160008F7D80836AE070E080E090E00E94170449
:1011700088E191E00E946A0587E291E00E94BB0548
:101180008091CF0287FD08C061E00E94030360E008
:101190008091CF020E94D50221E02093CA0240E054
:1011A00060E070E08FEF90E00E94310561E0809197
:1011B000DE020E94030360E08091DF020E940303CD
:1011C00081E08093E00260E08091DE020E94D5021F
:1011D0000E944A0460935E0370935F0380936003F0
:1011E000909361030E944A0460367940810591051D
:1011F00018F40E945604F6CF81E0809347031092C2
:101200004403109255030E944A04209153033091E5
:1012100054036B017C01C20ED31EE11CF11C0E9421
:10122000560489838091560381110BC00E944A04A1
:10123000C616D706E806F90620F481E08093550328
:1012400003C0B981B23059F710925203809155030F
:10125000882329F083E391E00E94BB05FFCF81EE54
:101260009AEBA0ECB3E48093E1029093E202A093A6
:10127000E302B093E4028EE295E0AAE2BBE380933E
:10128000E5029093E602A093E702B093E80288E6B5
:1012900091E00E94BB0580E0282E80E0382E11E00E
:1012A0000E94560481111093230280912302882307
:1012B00009F418C10E944A04C0901F02D090200275
:1012C000E0902102F0902202C616D706E806F90641
:1012D00008F008C10E94FE006093590370935A03FE
:1012E00080935B0390935C03C0903503D0903603EA
:1012F000E0903703F09038036C197D098E099F093F
:101300000E94080D2091E5023091E6024091E7022B
:101310005091E8020E94150E6B017C018CE791E070
:101320000E946A05C701B6010E94C90580900D029E
:1013300090900E02A0900F02B090100220E030E0DA
:10134000A901C501B4010E94100E18160CF097C037
:101350002DEC3CEC4CE45EE3C501B4010E94ED0BC6
:1013600069837A838B839C8320E030E0A901C701E5
:10137000B6010E94100E26013701181624F077FAE4
:10138000709477F87094A301920169817A818B81BE
:101390009C810E94100E18160CF082C020E030E0F4
:1013A000A901C501B4010E94100E18160CF070C0FE
:1013B0002DEC3CEC4CE45EE3C501B4010E94EC0B67
:1013C0009B01AC01C301B2010E94100E18160CF073
:1013D00067C0C0920D02D0920E02E0920F02F0920E
:1013E000100220E030E040E85FE3C701B6010E9450
:1013F000590C87FFC8C010921A0280911A0290916E
:101400001902891709F462C080931902882309F42C
:1014100074C18DE891E00E946A0560911502709197
:10142000160280911702909118020E94C9058090BF
:10143000150290901602A0901702B090180220E0BA
:1014400030E0A901C501B4010E94590C81119EC070
:10145000C0921502D0921602E0921702F092180282
:1014600042E360E07FEF80E090E00E94310540E0E1
:1014700060E070E080E09FEF0E94310527C0A50189
:1014800094016DEC7CEC8CE49EE30E94EC0B68CF45
:10149000C501B40190582DEC3CEC4CE45EE38ECFDA
:1014A0004AE065ED70E08FEF90E00E94310540E08A
:1014B00060E070E080E09FEF0E943105C0920D0275
:1014C000D0920E02E0920F02F092100210922302CC
:1014D0000E944A0460931F027093200280932102AD
:1014E000909322020E944A04AB01BC0180911B022E
:1014F00090911C02A0911D02B0911E028054984D43
:10150000A64FBF4F481759076A077B0708F42DC13C
:101510008AED91E00E94BB050E944A0460931B0281
:1015200070931C0280931D0290931E028090C5024E
:101530009090C602A090C702B090C8028092C102EB
:101540009092C202A092C302B092C4028AE090E0DC
:101550009A838983F12CE12CD12CC12C8091CB0270
:101560009091CC02C816D90608F0CDC04FE750E0E4
:1015700060E070E0C7018C0D9D1D0E948D0093E01E
:10158000C90ED11CEBCF10931A0237CF20E030E008
:1015900040E85FE3C701B6010E94ED0B9B01AC017F
:1015A000C501B4010E94100E181684F52091110295
:1015B000309112024091130250911402C501B401FE
:1015C0000E94ED0BA70196010E94EC0B60931102A3
:1015D0007093120280931302909314020E944A04A3
:1015E00060931B0270931C0280931D0290931E0255
:1015F00081EA91E00E946A056091110270911202E5
:1016000080911302909114020E94C905C0921502A4
:10161000D0921602E0921702F0921802E090CB02EC
:10162000F090CC0280ED97E0B7010E94870E072E64
:10163000000C880B990B0E94080D9B01AC01609176
:1016400011027091120280911302909114020E9473
:101650005E0C0E94430D0E94D00C7A836983E616CB
:10166000F70610F4FA82E98288EC91E00E946A059C
:10167000A981BA816D01BB0FEE08FF084AE0C701DE
:10168000B601F7FE0DC06DE284E292E00E94160200
:1016900066277727CB016C197D098E099F094AE0DF
:1016A0000E94770588E191E00E946A0580E09FEF43
:1016B000A0E0B0E08093C5029093C602A093C70259
:1016C000B093C802F12CE12CA981BA81EA16FB067D
:1016D00009F4CDCE40E05FEF60E070E0C7010E940A
:1016E0008D000E94590362E370E080E090E00E9468
:1016F0001704BFEFEB1AFB0AE7CF40E060E070E0B1
:101700008FEF90E0B9CE0E94590362E370E080E071
:1017100090E00E941704D12CC12C8091CB029091B3
:10172000CC02C816D90660F440E050E0BA01C70107
:101730008C0D9D1D0E948D00A3E0CA0ED11CEDCF23
:10174000BFEFEB1AFB0A23E0E216F10409F004CF25
:1017500089819A8101979A838983892B09F0FACE2E
:1017600040E0C501B4010E94310584E292E00E948C
:10177000D4011816190654F484E292E00E94B201D2
:10178000843721F41093470310924403809152034D
:1017900010925203882321F086EF91E00E94BB054E
:1017A0002114310409F47CCD0E94E001882309F45E
:1017B00077CD0E94000074CD8091D1029091D20229
:1017C000009711F00E945F0F8091CF0287FD03C048
:1017D00060E00C94030308955058BB27AA270E9489
:1017E000040C0C94BE0D0E94B00D38F00E94B70D91
:1017F00020F039F49F3F19F426F40C94AD0D0EF44B
:10180000E095E7FB0C947E0DE92F0E94CF0D58F375
:10181000BA17620773078407950720F079F4A6F5D5
:101820000C94090E0EF4E0950B2EBA2FA02D0B018F
:10183000B90190010C01CA01A0011124FF27591B15
:1018400099F0593F50F4503E68F11A16F040A22F1B
:10185000232F342F4427585FF3CF4695379527958C
:10186000A795F0405395C9F77EF41F16BA0B620B8B
:10187000730B840BBAF09150A1F0FF0FBB1F661FD2
:10188000771F881FC2F70EC0BA0F621F731F841F15
:1018900048F4879577956795B795F7959E3F08F03B
:1018A000B0CF9395880F08F09927EE0F97958795FD
:1018B00008950E945A0D08F481E008950E94720C68
:1018C0000C94BE0D0E94B70D58F00E94B00D40F070
:1018D00029F45F3F29F00C947E0D51110C940A0EEF
:1018E0000C94AD0D0E94CF0D68F39923B1F35523ED
:1018F00091F3951B550BBB27AA2762177307840723
:1019000038F09F5F5F4F220F331F441FAA1FA9F3B8
:1019100035D00E2E3AF0E0E832D091505040E695A6
:10192000001CCAF72BD0FE2F29D0660F771F881F07
:10193000BB1F261737074807AB07B0E809F0BB0BFA
:10194000802DBF01FF2793585F4F3AF09E3F51050E
:1019500078F00C947E0D0C940A0E5F3FE4F3983EF1
:10196000D4F3869577956795B795F7959F5FC9F7F7
:10197000880F911D9695879597F90895E1E0660F78
:10198000771F881FBB1F621773078407BA0720F0F1
:10199000621B730B840BBA0BEE1F88F7E09508955A
:1019A0000E94D70C6894B1110C940A0E08950E94FD
:1019B000D70D88F09F5798F0B92F9927B751B0F0FD
:1019C000E1F0660F771F881F991F1AF0BA95C9F7C3
:1019D00014C0B13091F00E94090EB1E008950C944A
:1019E000090E672F782F8827B85F39F0B93FCCF3FD
:1019F000869577956795B395D9F73EF49095809540
:101A0000709561957F4F8F4F9F4F0895E89409C05F
:101A100097FB3EF490958095709561957F4F8F4F21
:101A20009F4F9923A9F0F92F96E9BB279395F69537
:101A3000879577956795B795F111F8CFFAF4BB0FB5
:101A400011F460FF1BC06F5F7F4F8F4F9F4F16C019
:101A5000882311F096E911C0772321F09EE8872FA3
:101A6000762F05C0662371F096E8862F70E060E05F
:101A70002AF09A95660F771F881FDAF7880F9695D8
:101A8000879597F908950E94F10D90F09F3748F4DB
:101A9000911116F00C940A0E60E070E080E89FEB64
:101AA000089526F41B16611D711D811D0C94840D73
:101AB0000C949F0D990F0008550FAA0BE0E8FEEF5C
:101AC00016161706E807F907C0F012161306E40702
:101AD000F50798F0621B730B840B950B39F40A26FB
:101AE00061F0232B242B252B21F408950A2609F4D9
:101AF000A140A6958FEF811D811D089597F99F67DD
:101B000080E870E060E00895882371F4772321F085
:101B10009850872B762F07C0662311F499270DC0A4
:101B20009051862B70E060E02AF09A95660F771F3F
:101B3000881FDAF7880F9695879597F908959F3F44
:101B400031F0915020F4879577956795B795880F78
:101B5000911D9695879597F908959FEF80EC0895CC
:101B600000240A941616170618060906089500247C
:101B70000A9412161306140605060895092E0394F6
:101B8000000C11F4882352F0BB0F40F4BF2B11F46A
:101B900060FF04C06F5F7F4F8F4F9F4F089557FDC9
:101BA0009058440F551F59F05F3F71F04795880FCB
:101BB00097FB991F61F09F3F79F087950895121662
:101BC00013061406551FF2CF4695F1DF08C016160E
:101BD00017061806991FF1CF8695710561050894BF
:101BE00008950E94D70DA0F0BEE7B91788F4BB276F
:101BF0009F3860F41616B11D672F782F8827985FDD
:101C0000F7CF869577956795B11D93959639C8F36B
:101C10000895E894BB2766277727CB0197F90895A5
:101C20000E945A0D08F48FEF08950E94280E0C941C
:101C3000BE0D0E94B00D38F00E94B70D20F0952324
:101C400011F00C947E0D0C94AD0D11240C940A0E21
:101C50000E94CF0D70F3959FC1F3950F50E0551F73
:101C6000629FF001729FBB27F00DB11D639FAA27F1
:101C7000F00DB11DAA1F649F6627B00DA11D661F40
:101C8000829F2227B00DA11D621F739FB00DA11D61
:101C9000621F839FA00D611D221F749F3327A00D1B
:101CA000611D231F849F600D211D822F762F6A2FB7
:101CB00011249F5750409AF0F1F088234AF0EE0F1C
:101CC000FF1FBB1F661F771F881F91505040A9F749
:101CD0009E3F510580F00C947E0D0C940A0E5F3FE0
:101CE000E4F3983ED4F3869577956795B795F79585
:101CF000E7959F5FC1F7FE2B880F911D96958795FD
:101D000097F908950E945A0D880B990B0895AA1B04
:101D1000BB1B51E107C0AA1FBB1FA617B70710F0D6
:101D2000A61BB70B881F991F5A95A9F78095909508
:101D3000BC01CD010895A1E21A2EAA1BBB1BFD0117
:101D40000DC0AA1FBB1FEE1FFF1FA217B307E4079A
:101D5000F50720F0A21BB30BE40BF50B661F771FF2
:101D6000881F991F1A9469F76095709580959095D2
:101D70009B01AC01BD01CF010895EE0FFF1F05903F
:101D8000F491E02D09940F931F93CF93DF9382304A
:101D9000910510F482E090E0E0916503F091660314
:101DA00030E020E0B0E0A0E0309799F42115310553
:101DB00009F44AC0281B390B24303105D8F58A8133
:101DC0009B816115710589F1FB0193838283FE017B
:101DD00011C0408151810281138148175907E0F0F9
:101DE0004817590799F4109761F012960C931297BF
:101DF00013961C933296CF01DF91CF911F910F91D3
:101E000008950093650310936603F4CF21153105FF
:101E100051F04217530738F0A901DB019A01BD01C7
:101E2000DF01F801C1CFEF01F9CF909366038093F2
:101E30006503CDCFFE01E20FF31F819391932250F2
:101E4000310939832883D7CF20916303309164030C
:101E5000232B41F42091020130910301309364035C
:101E60002093630320910001309101012115310578
:101E700041F42DB73EB74091040150910501241B58
:101E8000350BE0916303F0916403E217F307A0F4CC
:101E90002E1B3F0B2817390778F0AC014E5F5F4FC0
:101EA0002417350748F04E0F5F1F5093640340938B
:101EB0006303819391939FCFF0E0E0E09CCFCF93B9
:101EC000DF930097E9F0FC01329713821282A09110
:101ED0006503B0916603ED0130E020E01097A1F4B6
:101EE00020813181820F931F20916303309164031D
:101EF0002817390709F061C0F0936403E093630386
:101F0000DF91CF910895EA01CE17DF07E8F54A8106
:101F10005B819E0141155105B1F7E901FB83EA831D
:101F200049915991C40FD51FEC17FD0761F48081C9
:101F300091810296840F951FE9019983888382819C
:101F400093819B838A83F0E0E0E012968D919C91CF
:101F500013970097B9F52D913C911197CD010296F9
:101F6000820F931F20916303309164032817390770
:101F700039F6309751F51092660310926503B093CD
:101F80006403A0936303BCCFD383C2834081518198
:101F9000840F951FC817D90761F44E5F5F4F888182
:101FA0009981480F591F518340838A819B81938374
:101FB00082832115310509F0B0CFF0936603E093D9
:101FC00065039ECFFD01DC01C0CF13821282D7CF03
:101FD00010E0C2E6D0E004C0FE010E94BD0E2196D2
:0A1FE000C336D107C9F7F894FFCF0C
:101FEA000000670380000000000016027601A301CA
:101FFA006302D401B201C6010D0A006E616E006966
:10200A006E66006F7666005374617274696E672E2D
:10201A002E2E0054696D656F75742C206368656394
:10202A006B204D43553E48583731312077697269E4
:10203A006E6720616E642070696E206465736967DB
:10204A006E6174696F6E7300537461727475702077
:10205A00697320636F6D706C657465004375727285
:10206A00656E74207765696768743A20004C6173FD
:10207A0074206B6E6F776E207765696768743A2093
:10208A0000476F6F64206A6F622C207761746572F3
:10209A00206465637265617365642120596F757286
:1020AA0020746F74616C3A00486967686C69676884
:1020BA007420706978656C3A2000446F6E2774202A
:1020CA00666F7267657420746F206472696E6B2024
:1020DA007761746572005461726520636F6D706C0C
:0420EA0065746500B4
:00000001FF
